{
  "contractName": "AdminStore",
  "abi": [
    {
      "inputs": [],
      "stateMutability": "nonpayable",
      "type": "constructor"
    },
    {
      "inputs": [
        {
          "internalType": "string",
          "name": "_name",
          "type": "string"
        }
      ],
      "name": "CreateStore",
      "outputs": [],
      "stateMutability": "nonpayable",
      "type": "function"
    },
    {
      "inputs": [
        {
          "internalType": "uint256",
          "name": "_id",
          "type": "uint256"
        }
      ],
      "name": "GetInfoStore",
      "outputs": [
        {
          "components": [
            {
              "internalType": "uint256",
              "name": "id",
              "type": "uint256"
            },
            {
              "internalType": "address",
              "name": "owner",
              "type": "address"
            },
            {
              "internalType": "string",
              "name": "name",
              "type": "string"
            },
            {
              "internalType": "uint256",
              "name": "promotionsQty",
              "type": "uint256"
            }
          ],
          "internalType": "struct AdminStore.Store",
          "name": "store",
          "type": "tuple"
        }
      ],
      "stateMutability": "view",
      "type": "function"
    }
  ],
  "bytecode": "0x608060405234801561001057600080fd5b50600160008190555061086b806100286000396000f3fe608060405234801561001057600080fd5b50600436106100365760003560e01c80638c007e481461003b578063d271cd1b14610057575b600080fd5b610055600480360381019061005091906104c4565b610087565b005b610071600480360381019061006c9190610505565b61023d565b60405161007e91906105e8565b60405180910390f35b6000604051806080016040528060005481526020013373ffffffffffffffffffffffffffffffffffffffff168152602001838152602001600081525090508060016000805481526020019081526020016000206000820151816000015560208201518160010160006101000a81548173ffffffffffffffffffffffffffffffffffffffff021916908373ffffffffffffffffffffffffffffffffffffffff1602179055506040820151816002019080519060200190610147929190610366565b506060820151816003015590505080600260003373ffffffffffffffffffffffffffffffffffffffff1673ffffffffffffffffffffffffffffffffffffffff1681526020019081526020016000206000805481526020019081526020016000206000820151816000015560208201518160010160006101000a81548173ffffffffffffffffffffffffffffffffffffffff021916908373ffffffffffffffffffffffffffffffffffffffff1602179055506040820151816002019080519060200190610214929190610366565b506060820151816003015590505060008081548092919061023490610737565b91905055505050565b6102456103ec565b60016000838152602001908152602001600020604051806080016040529081600082015481526020016001820160009054906101000a900473ffffffffffffffffffffffffffffffffffffffff1673ffffffffffffffffffffffffffffffffffffffff1673ffffffffffffffffffffffffffffffffffffffff1681526020016002820180546102d390610705565b80601f01602080910402602001604051908101604052809291908181526020018280546102ff90610705565b801561034c5780601f106103215761010080835404028352916020019161034c565b820191906000526020600020905b81548152906001019060200180831161032f57829003601f168201915b505050505081526020016003820154815250509050919050565b82805461037290610705565b90600052602060002090601f01602090048101928261039457600085556103db565b82601f106103ad57805160ff19168380011785556103db565b828001600101855582156103db579182015b828111156103da5782518255916020019190600101906103bf565b5b5090506103e8919061042a565b5090565b604051806080016040528060008152602001600073ffffffffffffffffffffffffffffffffffffffff16815260200160608152602001600081525090565b5b8082111561044357600081600090555060010161042b565b5090565b600061045a6104558461063b565b61060a565b90508281526020810184848401111561047257600080fd5b61047d8482856106c3565b509392505050565b600082601f83011261049657600080fd5b81356104a6848260208601610447565b91505092915050565b6000813590506104be8161081e565b92915050565b6000602082840312156104d657600080fd5b600082013567ffffffffffffffff8111156104f057600080fd5b6104fc84828501610485565b91505092915050565b60006020828403121561051757600080fd5b6000610525848285016104af565b91505092915050565b61053781610687565b82525050565b60006105488261066b565b6105528185610676565b93506105628185602086016106d2565b61056b8161080d565b840191505092915050565b600060808301600083015161058e60008601826105d9565b5060208301516105a1602086018261052e565b50604083015184820360408601526105b9828261053d565b91505060608301516105ce60608601826105d9565b508091505092915050565b6105e2816106b9565b82525050565b600060208201905081810360008301526106028184610576565b905092915050565b6000604051905081810181811067ffffffffffffffff82111715610631576106306107de565b5b8060405250919050565b600067ffffffffffffffff821115610656576106556107de565b5b601f19601f8301169050602081019050919050565b600081519050919050565b600082825260208201905092915050565b600061069282610699565b9050919050565b600073ffffffffffffffffffffffffffffffffffffffff82169050919050565b6000819050919050565b82818337600083830152505050565b60005b838110156106f05780820151818401526020810190506106d5565b838111156106ff576000848401525b50505050565b6000600282049050600182168061071d57607f821691505b60208210811415610731576107306107af565b5b50919050565b6000610742826106b9565b91507fffffffffffffffffffffffffffffffffffffffffffffffffffffffffffffffff82141561077557610774610780565b5b600182019050919050565b7f4e487b7100000000000000000000000000000000000000000000000000000000600052601160045260246000fd5b7f4e487b7100000000000000000000000000000000000000000000000000000000600052602260045260246000fd5b7f4e487b7100000000000000000000000000000000000000000000000000000000600052604160045260246000fd5b6000601f19601f8301169050919050565b610827816106b9565b811461083257600080fd5b5056fea264697066735822122084f67aa144a2cf29cf719ab22ff40da93c1dbea5cc1ba5528fb818497ed2a0af64736f6c63430008000033",
  "immutableReferences": {},
  "source": "// SPDX-License-Identifier: MIT\r\npragma solidity 0.8.0;\r\n\r\ncontract AdminStore{\r\n    uint private qtyStores;\r\n    \r\n    constructor(){\r\n        qtyStores = 1;\r\n    }\r\n    \r\n    struct Store{\r\n        uint id;\r\n        address owner;\r\n        string name;\r\n        uint promotionsQty;\r\n    }\r\n    \r\n    struct Promotion{\r\n        uint id;\r\n        uint idStore;\r\n        string name;\r\n    }\r\n    \r\n    mapping(uint => Store) stores;\r\n    mapping(address => mapping(uint => Store)) storesByOwner;\r\n    \r\n    function CreateStore(string memory _name) public {\r\n        Store memory localStore =  Store(qtyStores, msg.sender, _name, 0);\r\n        stores[qtyStores] = localStore;\r\n        storesByOwner[msg.sender][qtyStores] = localStore;\r\n        qtyStores++;\r\n    }\r\n\r\n    function GetInfoStore(uint _id) public view returns(Store memory store){\r\n        return stores[_id];\r\n    }\r\n    \r\n    function GetStoreByOwner(address _owner, uint256 _idStore) internal view returns(Store memory store){\r\n        return storesByOwner[_owner][_idStore];\r\n    }\r\n        \r\n    \r\n}",
  "sourcePath": "D:/Chainlink/Hackathon Chainlink/protocol/truffle-project/contracts/AdminStore.sol",
  "compiler": {
    "name": "solc",
    "version": "0.8.0+commit.c7dfd78e.Emscripten.clang"
  },
  "schemaVersion": "3.3.4",
  "updatedAt": "2021-11-11T22:30:01.925Z",
  "devdoc": {
    "kind": "dev",
    "methods": {},
    "version": 1
  },
  "userdoc": {
    "kind": "user",
    "methods": {},
    "version": 1
  }
}